{
  "_format": "hh-sol-artifact-1",
  "contractName": "DdexSequencer",
  "sourceName": "contracts/DdexSequencer.sol",
  "abi": [
    {
      "inputs": [
        {
          "internalType": "address",
          "name": "dataProvidersWhitelist",
          "type": "address"
        },
        {
          "internalType": "address",
          "name": "validatorsWhitelist",
          "type": "address"
        },
        {
          "internalType": "address",
          "name": "stakeVaultAddress",
          "type": "address"
        }
      ],
      "stateMutability": "nonpayable",
      "type": "constructor"
    },
    {
      "anonymous": false,
      "inputs": [
        {
          "components": [
            {
              "internalType": "string",
              "name": "isrc",
              "type": "string"
            },
            {
              "internalType": "string",
              "name": "releaseId",
              "type": "string"
            }
          ],
          "indexed": false,
          "internalType": "struct DdexSequencer.DdexMessageData",
          "name": "data",
          "type": "tuple"
        }
      ],
      "name": "MessageDigested",
      "type": "event"
    },
    {
      "anonymous": false,
      "inputs": [
        {
          "indexed": false,
          "internalType": "bytes",
          "name": "commitment",
          "type": "bytes"
        }
      ],
      "name": "NewBlobSubmitted",
      "type": "event"
    },
    {
      "anonymous": false,
      "inputs": [
        {
          "indexed": false,
          "internalType": "bytes1",
          "name": "_whitelistId",
          "type": "bytes1"
        },
        {
          "indexed": false,
          "internalType": "address",
          "name": "_previousAddress",
          "type": "address"
        },
        {
          "indexed": false,
          "internalType": "address",
          "name": "_newAddress",
          "type": "address"
        }
      ],
      "name": "WhitelistChanged",
      "type": "event"
    },
    {
      "inputs": [],
      "name": "DATA_PROVIDERS_WHITELIST",
      "outputs": [
        {
          "internalType": "bytes1",
          "name": "",
          "type": "bytes1"
        }
      ],
      "stateMutability": "view",
      "type": "function"
    },
    {
      "inputs": [],
      "name": "VALIDATORS_WHITELIST",
      "outputs": [
        {
          "internalType": "bytes1",
          "name": "",
          "type": "bytes1"
        }
      ],
      "stateMutability": "view",
      "type": "function"
    },
    {
      "inputs": [],
      "name": "blobQueueHead",
      "outputs": [
        {
          "internalType": "bytes32",
          "name": "",
          "type": "bytes32"
        }
      ],
      "stateMutability": "view",
      "type": "function"
    },
    {
      "inputs": [],
      "name": "blobQueueTail",
      "outputs": [
        {
          "internalType": "bytes32",
          "name": "",
          "type": "bytes32"
        }
      ],
      "stateMutability": "view",
      "type": "function"
    },
    {
      "inputs": [
        {
          "internalType": "bytes32",
          "name": "",
          "type": "bytes32"
        }
      ],
      "name": "blobs",
      "outputs": [
        {
          "internalType": "bytes32",
          "name": "nextBlob",
          "type": "bytes32"
        },
        {
          "internalType": "bool",
          "name": "submitted",
          "type": "bool"
        },
        {
          "internalType": "address",
          "name": "proposer",
          "type": "address"
        }
      ],
      "stateMutability": "view",
      "type": "function"
    },
    {
      "inputs": [
        {
          "internalType": "bytes",
          "name": "commitment",
          "type": "bytes"
        }
      ],
      "name": "submitNewBlob",
      "outputs": [],
      "stateMutability": "nonpayable",
      "type": "function"
    },
    {
      "inputs": [
        {
          "internalType": "bool",
          "name": "proof",
          "type": "bool"
        }
      ],
      "name": "submitProofForFraudulentBlob",
      "outputs": [],
      "stateMutability": "nonpayable",
      "type": "function"
    },
    {
      "inputs": [
        {
          "internalType": "bool",
          "name": "proof",
          "type": "bool"
        },
        {
          "components": [
            {
              "internalType": "string",
              "name": "isrc",
              "type": "string"
            },
            {
              "internalType": "string",
              "name": "releaseId",
              "type": "string"
            }
          ],
          "internalType": "struct DdexSequencer.DdexMessageData[]",
          "name": "messagesData",
          "type": "tuple[]"
        }
      ],
      "name": "submitProofOfProcessing",
      "outputs": [],
      "stateMutability": "nonpayable",
      "type": "function"
    },
    {
      "inputs": [
        {
          "internalType": "bytes1",
          "name": "",
          "type": "bytes1"
        }
      ],
      "name": "whitelists",
      "outputs": [
        {
          "internalType": "address",
          "name": "",
          "type": "address"
        }
      ],
      "stateMutability": "view",
      "type": "function"
    }
  ],
  "bytecode": "0x608060405234801562000010575f80fd5b5060405162001b0538038062001b05833981810160405281019062000036919062000433565b6200004c83600160f81b620000ab60201b60201c565b6200006282600260f81b620000ab60201b60201c565b8060035f6101000a81548173ffffffffffffffffffffffffffffffffffffffff021916908373ffffffffffffffffffffffffffffffffffffffff160217905550505050620005e9565b5f73ffffffffffffffffffffffffffffffffffffffff168273ffffffffffffffffffffffffffffffffffffffff1614620001545762000111827f5470aee9000000000000000000000000000000000000000000000000000000006200029f60201b60201c565b62000153576040517f08c379a00000000000000000000000000000000000000000000000000000000081526004016200014a90620004ea565b60405180910390fd5b5b5f805f837effffffffffffffffffffffffffffffffffffffffffffffffffffffffffffff19167effffffffffffffffffffffffffffffffffffffffffffffffffffffffffffff191681526020019081526020015f205f9054906101000a900473ffffffffffffffffffffffffffffffffffffffff169050825f80847effffffffffffffffffffffffffffffffffffffffffffffffffffffffffffff19167effffffffffffffffffffffffffffffffffffffffffffffffffffffffffffff191681526020019081526020015f205f6101000a81548173ffffffffffffffffffffffffffffffffffffffff021916908373ffffffffffffffffffffffffffffffffffffffff1602179055507fbdb658fbebcb4884950df11335d9177f3b8c7fb1b1f5290202b9715198d7e105828285604051620002929392919062000557565b60405180910390a1505050565b5f620002b183620002d460201b60201c565b8015620002cc5750620002cb83836200033160201b60201c565b5b905092915050565b5f62000307827f01ffc9a7000000000000000000000000000000000000000000000000000000006200033160201b60201c565b80156200032a5750620003288263ffffffff60e01b6200033160201b60201c565b155b9050919050565b5f8082604051602401620003469190620005ce565b6040516020818303038152906040526301ffc9a760e01b6020820180517bffffffffffffffffffffffffffffffffffffffffffffffffffffffff838183161783525050505090505f805f60205f8551602087018a617530fa92503d91505f519050828015620003b6575060208210155b8015620003c257505f81115b94505050505092915050565b5f80fd5b5f73ffffffffffffffffffffffffffffffffffffffff82169050919050565b5f620003fd82620003d2565b9050919050565b6200040f81620003f1565b81146200041a575f80fd5b50565b5f815190506200042d8162000404565b92915050565b5f805f606084860312156200044d576200044c620003ce565b5b5f6200045c868287016200041d565b93505060206200046f868287016200041d565b925050604062000482868287016200041d565b9150509250925092565b5f82825260208201905092915050565b7f496e74657266616365206e6f7420737570706f727465640000000000000000005f82015250565b5f620004d26017836200048c565b9150620004df826200049c565b602082019050919050565b5f6020820190508181035f8301526200050381620004c4565b9050919050565b5f7fff0000000000000000000000000000000000000000000000000000000000000082169050919050565b62000540816200050a565b82525050565b6200055181620003f1565b82525050565b5f6060820190506200056c5f83018662000535565b6200057b602083018562000546565b6200058a604083018462000546565b949350505050565b5f7fffffffff0000000000000000000000000000000000000000000000000000000082169050919050565b620005c88162000592565b82525050565b5f602082019050620005e35f830184620005bd565b92915050565b61150e80620005f75f395ff3fe608060405234801561000f575f80fd5b5060043610610090575f3560e01c8063730e214f11610064578063730e214f14610106578063ac904c2914610124578063dd181c7314610142578063ddae462214610174578063fd80dd461461019257610090565b806265d3a6146100945780631fed3645146100b257806341e36cc2146100ce578063710dbd6d146100ea575b5f80fd5b61009c6101c2565b6040516100a99190610b1c565b60405180910390f35b6100cc60048036038101906100c79190610e26565b6101ca565b005b6100e860048036038101906100e39190610f1e565b6103fb565b005b61010460048036038101906100ff9190610f65565b6106d4565b005b61010e610957565b60405161011b9190610b1c565b60405180910390f35b61012c61095f565b6040516101399190610fa8565b60405180910390f35b61015c60048036038101906101579190610feb565b610965565b60405161016b93929190611064565b60405180910390f35b61017c6109b7565b6040516101899190610fa8565b60405180910390f35b6101ac60048036038101906101a791906110c3565b6109bd565b6040516101b991906110ee565b60405180910390f35b600160f81b81565b600260f81b5f80827effffffffffffffffffffffffffffffffffffffffffffffffffffffffffffff19167effffffffffffffffffffffffffffffffffffffffffffffffffffffffffffff191681526020019081526020015f205f9054906101000a900473ffffffffffffffffffffffffffffffffffffffff1673ffffffffffffffffffffffffffffffffffffffff16633af32abf336040518263ffffffff1660e01b815260040161027b91906110ee565b602060405180830381865afa158015610296573d5f803e3d5ffd5b505050506040513d601f19601f820116820180604052508101906102ba919061111b565b6102f9576040517f08c379a00000000000000000000000000000000000000000000000000000000081526004016102f0906111a0565b60405180910390fd5b5f801b6001540361033f576040517f08c379a000000000000000000000000000000000000000000000000000000000815260040161033690611208565b60405180910390fd5b5f83905080610383576040517f08c379a000000000000000000000000000000000000000000000000000000000815260040161037a90611270565b60405180910390fd5b61038b6109ec565b5f5b83518110156103f4577fe065df8cab582502d869b2af1e73f871eb5be034114a6f3baa972593b2a78dc58482815181106103ca576103c961128e565b5b60200260200101516040516103df9190611376565b60405180910390a1808060010191505061038d565b5050505050565b600160f81b5f80827effffffffffffffffffffffffffffffffffffffffffffffffffffffffffffff19167effffffffffffffffffffffffffffffffffffffffffffffffffffffffffffff191681526020019081526020015f205f9054906101000a900473ffffffffffffffffffffffffffffffffffffffff1673ffffffffffffffffffffffffffffffffffffffff16633af32abf336040518263ffffffff1660e01b81526004016104ac91906110ee565b602060405180830381865afa1580156104c7573d5f803e3d5ffd5b505050506040513d601f19601f820116820180604052508101906104eb919061111b565b61052a576040517f08c379a0000000000000000000000000000000000000000000000000000000008152600401610521906111a0565b60405180910390fd5b5f804990505f801b8103610573576040517f08c379a000000000000000000000000000000000000000000000000000000000815260040161056a906113e0565b60405180910390fd5b5f151560045f8381526020019081526020015f206001015f9054906101000a900460ff161515146105d9576040517f08c379a00000000000000000000000000000000000000000000000000000000081526004016105d090611448565b60405180910390fd5b600160045f8381526020019081526020015f206001015f6101000a81548160ff0219169083151502179055503360045f8381526020019081526020015f2060010160016101000a81548173ffffffffffffffffffffffffffffffffffffffff021916908373ffffffffffffffffffffffffffffffffffffffff1602179055505f801b60015403610676578060018190555080600281905550610698565b8060045f60025481526020019081526020015f205f0181905550806002819055505b7f6a6fc970009454e3172a2ec189981caa44b6d81bfc3a7ba62cf8367df4aecf75836040516106c791906114b8565b60405180910390a1505050565b600260f81b5f80827effffffffffffffffffffffffffffffffffffffffffffffffffffffffffffff19167effffffffffffffffffffffffffffffffffffffffffffffffffffffffffffff191681526020019081526020015f205f9054906101000a900473ffffffffffffffffffffffffffffffffffffffff1673ffffffffffffffffffffffffffffffffffffffff16633af32abf336040518263ffffffff1660e01b815260040161078591906110ee565b602060405180830381865afa1580156107a0573d5f803e3d5ffd5b505050506040513d601f19601f820116820180604052508101906107c4919061111b565b610803576040517f08c379a00000000000000000000000000000000000000000000000000000000081526004016107fa906111a0565b60405180910390fd5b5f801b60015403610849576040517f08c379a000000000000000000000000000000000000000000000000000000000815260040161084090611208565b60405180910390fd5b5f8290508061088d576040517f08c379a000000000000000000000000000000000000000000000000000000000815260040161088490611270565b60405180910390fd5b60035f9054906101000a900473ffffffffffffffffffffffffffffffffffffffff1673ffffffffffffffffffffffffffffffffffffffff1663b03b3ef060045f60015481526020019081526020015f2060010160019054906101000a900473ffffffffffffffffffffffffffffffffffffffff166040518263ffffffff1660e01b815260040161091d91906110ee565b5f604051808303815f87803b158015610934575f80fd5b505af1158015610946573d5f803e3d5ffd5b505050506109526109ec565b505050565b600260f81b81565b60015481565b6004602052805f5260405f205f91509050805f015490806001015f9054906101000a900460ff16908060010160019054906101000a900473ffffffffffffffffffffffffffffffffffffffff16905083565b60025481565b5f602052805f5260405f205f915054906101000a900473ffffffffffffffffffffffffffffffffffffffff1681565b60025460015403610a16576109ff610a42565b5f801b6001819055505f801b600281905550610a40565b5f60045f60015481526020019081526020015f205f01549050610a37610a42565b80600181905550505b565b5f60045f60015481526020019081526020015f206001015f6101000a81548160ff0219169083151502179055505f801b60045f60015481526020019081526020015f205f01819055505f60045f60015481526020019081526020015f2060010160016101000a81548173ffffffffffffffffffffffffffffffffffffffff021916908373ffffffffffffffffffffffffffffffffffffffff160217905550565b5f7fff0000000000000000000000000000000000000000000000000000000000000082169050919050565b610b1681610ae2565b82525050565b5f602082019050610b2f5f830184610b0d565b92915050565b5f604051905090565b5f80fd5b5f80fd5b5f8115159050919050565b610b5a81610b46565b8114610b64575f80fd5b50565b5f81359050610b7581610b51565b92915050565b5f80fd5b5f601f19601f8301169050919050565b7f4e487b71000000000000000000000000000000000000000000000000000000005f52604160045260245ffd5b610bc582610b7f565b810181811067ffffffffffffffff82111715610be457610be3610b8f565b5b80604052505050565b5f610bf6610b35565b9050610c028282610bbc565b919050565b5f67ffffffffffffffff821115610c2157610c20610b8f565b5b602082029050602081019050919050565b5f80fd5b5f80fd5b5f80fd5b5f80fd5b5f67ffffffffffffffff821115610c5c57610c5b610b8f565b5b610c6582610b7f565b9050602081019050919050565b828183375f83830152505050565b5f610c92610c8d84610c42565b610bed565b905082815260208101848484011115610cae57610cad610c3e565b5b610cb9848285610c72565b509392505050565b5f82601f830112610cd557610cd4610b7b565b5b8135610ce5848260208601610c80565b91505092915050565b5f60408284031215610d0357610d02610c36565b5b610d0d6040610bed565b90505f82013567ffffffffffffffff811115610d2c57610d2b610c3a565b5b610d3884828501610cc1565b5f83015250602082013567ffffffffffffffff811115610d5b57610d5a610c3a565b5b610d6784828501610cc1565b60208301525092915050565b5f610d85610d8084610c07565b610bed565b90508083825260208201905060208402830185811115610da857610da7610c32565b5b835b81811015610def57803567ffffffffffffffff811115610dcd57610dcc610b7b565b5b808601610dda8982610cee565b85526020850194505050602081019050610daa565b5050509392505050565b5f82601f830112610e0d57610e0c610b7b565b5b8135610e1d848260208601610d73565b91505092915050565b5f8060408385031215610e3c57610e3b610b3e565b5b5f610e4985828601610b67565b925050602083013567ffffffffffffffff811115610e6a57610e69610b42565b5b610e7685828601610df9565b9150509250929050565b5f67ffffffffffffffff821115610e9a57610e99610b8f565b5b610ea382610b7f565b9050602081019050919050565b5f610ec2610ebd84610e80565b610bed565b905082815260208101848484011115610ede57610edd610c3e565b5b610ee9848285610c72565b509392505050565b5f82601f830112610f0557610f04610b7b565b5b8135610f15848260208601610eb0565b91505092915050565b5f60208284031215610f3357610f32610b3e565b5b5f82013567ffffffffffffffff811115610f5057610f4f610b42565b5b610f5c84828501610ef1565b91505092915050565b5f60208284031215610f7a57610f79610b3e565b5b5f610f8784828501610b67565b91505092915050565b5f819050919050565b610fa281610f90565b82525050565b5f602082019050610fbb5f830184610f99565b92915050565b610fca81610f90565b8114610fd4575f80fd5b50565b5f81359050610fe581610fc1565b92915050565b5f6020828403121561100057610fff610b3e565b5b5f61100d84828501610fd7565b91505092915050565b61101f81610b46565b82525050565b5f73ffffffffffffffffffffffffffffffffffffffff82169050919050565b5f61104e82611025565b9050919050565b61105e81611044565b82525050565b5f6060820190506110775f830186610f99565b6110846020830185611016565b6110916040830184611055565b949350505050565b6110a281610ae2565b81146110ac575f80fd5b50565b5f813590506110bd81611099565b92915050565b5f602082840312156110d8576110d7610b3e565b5b5f6110e5848285016110af565b91505092915050565b5f6020820190506111015f830184611055565b92915050565b5f8151905061111581610b51565b92915050565b5f602082840312156111305761112f610b3e565b5b5f61113d84828501611107565b91505092915050565b5f82825260208201905092915050565b7f53656e646572206973206e6f742077686974656c6973746564000000000000005f82015250565b5f61118a601983611146565b915061119582611156565b602082019050919050565b5f6020820190508181035f8301526111b78161117e565b9050919050565b7f517565756520697320656d7074790000000000000000000000000000000000005f82015250565b5f6111f2600e83611146565b91506111fd826111be565b602082019050919050565b5f6020820190508181035f83015261121f816111e6565b9050919050565b7f496e76616c69642070726f6f66000000000000000000000000000000000000005f82015250565b5f61125a600d83611146565b915061126582611226565b602082019050919050565b5f6020820190508181035f8301526112878161124e565b9050919050565b7f4e487b71000000000000000000000000000000000000000000000000000000005f52603260045260245ffd5b5f81519050919050565b5f82825260208201905092915050565b5f5b838110156112f25780820151818401526020810190506112d7565b5f8484015250505050565b5f611307826112bb565b61131181856112c5565b93506113218185602086016112d5565b61132a81610b7f565b840191505092915050565b5f604083015f8301518482035f86015261134f82826112fd565b9150506020830151848203602086015261136982826112fd565b9150508091505092915050565b5f6020820190508181035f83015261138e8184611335565b905092915050565b7f426c6f62206e6f7420666f756e6420696e2074780000000000000000000000005f82015250565b5f6113ca601483611146565b91506113d582611396565b602082019050919050565b5f6020820190508181035f8301526113f7816113be565b9050919050565b7f426c6f6220616c7265616479207375626d6974746564000000000000000000005f82015250565b5f611432601683611146565b915061143d826113fe565b602082019050919050565b5f6020820190508181035f83015261145f81611426565b9050919050565b5f81519050919050565b5f82825260208201905092915050565b5f61148a82611466565b6114948185611470565b93506114a48185602086016112d5565b6114ad81610b7f565b840191505092915050565b5f6020820190508181035f8301526114d08184611480565b90509291505056fea2646970667358221220839373dd14cc3122ee4aff091ad1253e3b108dcbde1d636ccc2586c43814b89a64736f6c63430008180033",
  "linkReferences": {},
  "deployedLinkReferences": {}
}